:020000040000FA
:060000000A128A11F02F24
:10000E00031083120313530D540DDA005A08031D07
:10001E00112812281B280030D4000030D3000030E5
:10002E00D2000030D1007E285108D5005208D600EB
:10003E005308D7005408D8001F300310D80CD70C23
:10004E00D60CD50CFF3E031D24285508D900D31716
:10005E00FF30D105FF30D205FF30D3050030D40577
:10006E009630DA02DA1F3C283D2857285A08803A83
:10007E00973E0318432844284528122801300310C0
:10008E00D40CD30CD20CD10CFF3E031D46280130EC
:10009E00D5005508DA07031D5528562845286E2821
:1000AE0020305A02031C5C285D2869281228013072
:1000BE00D5000310D10DD20DD30DD40DD50B602864
:1000CE000130DA025A08031D6D286E285E28590881
:1000DE000319722873287E28D109D209D309D409AD
:1000EE00D10A0319D20A0319D30A0319D40A080034
:1000FE0083160313BB00A130AE00DB2F2530420662
:10010E0003198A288B2895283B08840042088313FC
:10011E0080000130A5002508BB07DB2FAF01B00121
:10012E00200884000A128A150A200A128A112E3A11
:10013E00031DA228A328E82830170130A5002508A2
:10014E00A007C001C101D7280A30F0000030F1002D
:10015E00831603134108F3004008F2000A168A15AD
:10016E004C210A128A11710883160313C1007008FC
:10017E00C000200884000A128A150A200A128A1169
:10018E00D03EA500FF3003180030A6002508C0079A
:10019E000318C10A2608C1070130A5002508A007CB
:1001AE00200884000A128A150A200A128A110A16D9
:1001BE008A1516210A128A110318E628E728AB2899
:1001CE00F328C001C1013016F32830151229C030B2
:1001DE00AF040030B0041229013083160313A007B8
:1001EE00FF30200784000A128A150A200A128A118B
:1001FE00C200A500A6012608003A03190729DB2F25
:10020E002508003A0319EB2F663A0319EC28133A26
:10021E000319EE28DB2F00302F05A500073030051F
:10022E00A6002508260403191D291E29CF2E301ECF
:10023E002129222926290630C0000030C1002E08AF
:10024E00840083130008BC00840A0008BD00840AE1
:10025E000008BE00840A0008BF000430A50025086F
:10026E00AE073F08F3003E08F2003D08F1003C08DF
:10027E00F0000030F7000030F6000030F5000030DE
:10028E00F4000A168A1537250A128A110318502906
:10029E0051296E29831603133F08F3003E08F2001E
:1002AE003D08F1003C08F0000A128A15E8200A12F7
:1002BE008A11730883160313BF007208BE007108FB
:1002CE00BD007008BC000330AF040030B0048316CC
:1002DE000313B501B6013F08F3003E08F2003D08D6
:1002EE00F1003C08F0000030F7000030F60000305E
:1002FE00F5000030F4000A168A15E8220A128A1157
:10030E0003188A298B297B2A0310831603133E0DAB
:10031E003F0D823EB500FF3003180030B600FF30AF
:10032E00B5070318B60AFF30B6070330F0000030E9
:10033E00F1003608F3003508F2000A168A154C2132
:10034E000A128A11710883160313B6007008B500DD
:10035E000A30F7000030F8003608FA003508F900C8
:10036E000A128A15F3200A128A11780883160313CB
:10037E00B6007708B500B61FC529C629CC29FF30AF
:10038E00B5070318B60AFF30B6073503FF3A0A124F
:10039E008A15A1240A128A118312031341088316A7
:1003AE000313BA0083120313400883160313B90014
:1003BE00831203133F0883160313B800831203132B
:1003CE003E0883160313B7003F0883120313A700DA
:1003DE00831603133E0883120313A600831603131A
:1003EE003D0883120313A500831603133C088312E2
:1003FE000313A400831603133A0883120313AB00EE
:10040E0083160313390883120313AA0083160313EA
:10041E00380883120313A9008316031337088312B7
:10042E000313A8000A128A155C210A128A1183127C
:10043E000313270883160313BA0083120313260827
:10044E0083160313B90083120313250883160313AF
:10045E00B80083120313240883160313B7003A0857
:10046E00F3003908F2003808F1003708F0003F3089
:10047E00F7008030F6000030F5000030F4000A1668
:10048E008A1537250A128A1103184E2A4F2A582A1E
:10049E00FF3083160313B5070318B60AFF30B607ED
:1004AE007B2A831603133A08F3003908F200380842
:1004BE00F1003708F0004130F7002030F600003030
:1004CE00F5000030F4000A168A1537250A128A1133
:1004DE00031C722A732A7B2A013083160313B50775
:1004EE000318B60A0030B607831603134108803A84
:1004FE00FF0080307F02031D862A0D304002031854
:10050E00892A8A2AD12A8316031340080A168A11C9
:10051E009D230A128A11831203134108D500400845
:10052E00D4003F08D3003E08D200831603133F08C1
:10053E0083120313D900831603133E088312031389
:10054E00D800831603133D0883120313D7008316B6
:10055E0003133C0883120313D6000A168A11A8252A
:10056E000A128A1183120313550883160313BF0050
:10057E0083120313540883160313BE00831203134E
:10058E00530883160313BD008312031352088316F8
:10059E000313BC00831603133608803AFF00803025
:1005AE007F02031DDC2A0A3035020318DF2AE02AF7
:1005BE00312B831603133F08F3003E08F2003D086B
:1005CE00F1003C08F0000030F7000030F60000307B
:1005DE00F5000030F4000A168A15E8220A128A1174
:1005EE000318FA2AFB2AA32B831603133F08831240
:1005FE000313D400831603133E0883120313D30090
:10060E00831603133D0883120313D20083160313BC
:10061E003C0883120313D1000A128A1107200A1212
:10062E008A11831203135408530452045104031DF8
:10063E00212B222BA32B831603133608803AFF009F
:10064E0080307F02031D2D2B02303502031C302B10
:10065E00312BA32B831603133A08F3003908F2004B
:10066E003808F1003708F0004030F7008930F60006
:10067E007030F5005F30F4000A168A1537250A121D
:10068E008A1103184B2B4C2B552BF7308316031363
:10069E00B5070318B60AFF30B6075D2BF830831680
:1006AE000313B5070318B60AFF30B60735080A124A
:1006BE008A15A1240A128A11831203134108831684
:1006CE000313BA0083120313400883160313B900F1
:1006DE00831203133F0883160313B8008312031308
:1006EE003E0883160313B7003F08F3003E08F200DE
:1006FE003D08F1003C08F0003A08F7003908F60012
:10070E003808F5003708F4000A168A1548270A1229
:10071E008A11730883160313B4007208B3007108AC
:10072E00B2007008B1000030BF000030BE000030D3
:10073E00BD000030BC00272C831603133F08831224
:10074E000313D400831603133E0883120313D3003E
:10075E00831603133D0883120313D200831603136B
:10076E003C0883120313D1000A128A1107200A12C1
:10077E008A1183120313540883160313B4008312D1
:10078E000313530883160313B30083120313520883
:10079E0083160313B2008312031351088316031337
:1007AE00B1003408F3003308F2003208F1003108CA
:1007BE00F00000300A168A1590260A128A11730864
:1007CE0083120313E9007208E8007108E70070084D
:1007DE00E600831603133F0883120313ED008316FE
:1007EE0003133E0883120313EC00831603133D0814
:1007FE0083120313EB00831603133C0883120313B7
:10080E00EA000A168A1528210A128A118312031386
:10081E00690883160313BF00831203136808831637
:10082E000313BE0083120313670883160313BD0060
:10083E0083120313660883160313BC00B501B601B9
:10084E00C201C20A4208A50001300310A50DFF3EE9
:10085E00031D2C2C0310250D693E84000A128A15E7
:10086E000A200A128A11A6000A128A150A200A12F2
:10087E008A11A7000A128A150A200A128A11A800E4
:10088E000A128A150A200A128A11A90029083402AE
:10089E00031D5B2C28083302031D5B2C2708320234
:1008AE00031D5B2C2608310203185E2C5F2C602C76
:1008BE006A2C0130A5002508C2070A304206031D26
:1008CE00692C6A2C292C03302F05A5000030300529
:1008DE00A600250826040319752C762C042D3B083A
:1008EE0084002D30831380000130A5002508BB073E
:1008FE00042D4208A50001300310A50DFF3E031D77
:10090E00832C0310250D693E84000A128A150A20D5
:10091E000A128A11F0000A128A150A200A128A1186
:10092E00F1000A128A150A200A128A11F2000A121E
:10093E008A150A200A128A11F3003408F7003308C8
:10094E00F6003208F5003108F4000A168A153D2427
:10095E000A128A11730883160313BA007208B900BB
:10096E007108B8007008B700003083120313A3009B
:10097E000030A2000030A1000A30A000831603133D
:10098E003A0883120313A700831603133908831240
:10099E000313A60083160313380883120313A5004E
:1009AE0083160313370883120313A4000A168A153D
:1009BE0036230A128A118312031323088316031394
:1009CE00BA0083120313220883160313B90083128D
:1009DE000313210883160313B80083120313200890
:1009EE0083160313B7003B0884003708303E831389
:1009FE0080000130A5002508BB070130C202420A63
:100A0E00031D0A2D0B2D802C1D2D831603133B0861
:100A1E0084003030831380000130A5002508BB0709
:100A2E00FF30B5070318B60AFF30B6073608803A0E
:100A3E00FF0080307F02031D262D01303502031882
:100A4E00292D2A2D0C2D831603134108803AFF0001
:100A5E0080307F02031D352D09304002031C382DD6
:100A6E00392D3E2D083083160313C200422D8316F6
:100A7E0003134008C2004208A500A6012508C002C3
:100A8E002608031CC103C102420803194F2D502D25
:100A9E00592D3B0884002E30831380000130A500B1
:100AAE002508BB0742080A128A15A1240A128A11C8
:100ABE0083120313410883160313AD00831203132D
:100ACE00400883160313AC00831203133F088316EA
:100ADE000313AB00831203133E0883160313AA00FD
:100AEE002D0883120313AB00831603132C088312F5
:100AFE000313AA00831603132B0883120313A900F2
:100B0E00831603132A0883120313A80083160313F4
:100B1E003F0883120313A700831603133E088312A4
:100B2E000313A600831603133D0883120313A500B7
:100B3E00831603133C0883120313A4000A128A15AA
:100B4E005C210A128A11831203132708D400260887
:100B5E00D3002508D2002408D1000A128A110720DA
:100B6E000A128A1183120313540883160313B40056
:100B7E0083120313530883160313B3008312031354
:100B8E00520883160313B2008312031351088316FF
:100B9E000313B100B12E4208A50001300310A50DBC
:100BAE00FF3E031DD52D0310250D693E84000A124C
:100BBE008A150A200A128A11F0000A128A150A20D2
:100BCE000A128A11F1000A128A150A200A128A11D3
:100BDE00F2000A128A150A200A128A11F30034084A
:100BEE00F7003308F6003208F5003108F4000A1653
:100BFE008A153D240A128A11730883160313BA004C
:100C0E007208B9007108B8007008B700003083127E
:100C1E000313A3000030A2000030A1000A30A00090
:100C2E00831603133A0883120313A70083160313C4
:100C3E00390883120313A600831603133808831290
:100C4E000313A50083160313370883120313A4009E
:100C5E000A168A1536230A128A11831203132308E1
:100C6E0083160313BA008312031322088316031389
:100C7E00B90083120313210883160313B8008312DD
:100C8E000313200883160313B7003B0884003708AC
:100C9E00303E831380000130A5002508BB074208B3
:100CAE00A50001300310A50DFF3E031D592E0310A4
:100CBE00250D693E84000A128A150A200A128A112D
:100CCE0083120313A0000A128A150A200A128A112F
:100CDE00A1000A128A150A200A128A11A2000A120B
:100CEE008A150A200A128A11A300831603133408E8
:100CFE0083120313A70083160313330883120313FF
:100D0E00A60083160313320883120313A50083165D
:100D1E000313310883120313A4000A168A1536230F
:100D2E000A128A1183120313230883160313B400C5
:100D3E0083120313220883160313B30083120313C3
:100D4E00210883160313B20083120313200883169F
:100D5E000313B1000130C202420A031DB72EB82E92
:100D6E00D22DC82E3B088400303083138000013012
:100D7E00A5002508BB07FF30C0070318C10AFF30C6
:100D8E00C10740084104031DCD2ECE2EB92EDB2FF8
:100D9E002E08840083130008A500840A0008A6000C
:100DAE002508B1002608B200B301B4010230A50037
:100DBE002508AE0740084104031DE62EE72EF52E4A
:100DCE003408330432043104031DEE2EEF2EF52EBB
:100DDE000130C0070318C10A0030C107C201C20AA0
:100DEE004208A50001300310A50DFF3E031DFA2E8B
:100DFE000310250D693E84000A128A150A200A1274
:100E0E008A11A6000A128A150A200A128A11A70050
:100E1E000A128A150A200A128A11A8000A128A15C5
:100E2E000A200A128A11A90029083402031D292F4B
:100E3E0028083302031D292F27083202031D292FEC
:100E4E002608310203182C2F2D2F2E2F382F01306C
:100E5E00A5002508C2070A304206031D372F382F7A
:100E6E00F72E4108803A803C031D3F2F4008420276
:100E7E000318422F432F442F5C2F83160313410870
:100E8E00803AA50080302502031D4F2F42084002F4
:100E9E000318522F532F5C2F831603134208A500FD
:100EAE00A6012508C0002608C100033083160313CF
:100EBE002F05A50000303005A600250826040319CD
:100ECE00692F6A2FCD2F3B0884002D3083138000AD
:100EDE000130A5002508BB07CD2F00308312031368
:100EEE00A3000030A2000030A1000A30A00083163B
:100EFE0003134008A50001300310A50DFF3E031D8E
:100F0E00832F0310250D693E84000A128A150A20CC
:100F1E000A128A11F0000A128A150A200A128A1180
:100F2E00F1000A128A150A200A128A11F2000A1218
:100F3E008A150A200A128A11F3003408F7003308C2
:100F4E00F6003208F5003108F4000A168A153D2421
:100F5E000A128A11730883120313A7007208A600DF
:100F6E007108A5007008A4000A168A1536230A1205
:100F7E008A11831203132008303E83160313C20016
:100F8E003B0884004208831380006F2FFF30C00798
:100F9E000318C10AFF30C107400A031DDA2F410AA8
:100FAE00031DDA2FDB2F742F0130A007FF3020072F
:100FBE0084000A128A150A200A128A11C2004208F7
:100FCE00031DEA2FEB2F85283B0884008313800135
:100FDE00080083120313EE018313CC308400E0303B
:100FEE000A168A150E210A128A1183010A168A110F
:100FFE004D28FF1B0A2883137F1883170008840AC5
:10100E000319FF0A080008308A000408840A8207C0
:10101E0000340034003480343F3400340034203443
:10102E00413400340034C8344234003400347A344D
:10103E004434003440341C34463400345034C33409
:10104E00473400342434743449348034963418349C
:10105E004B342034BC34BE344C3428346B346E34B0
:10106E004E34F934023415345034EC347834AD3413
:10107E006034CA34F234493471340034003480346C
:10108E003F34CD34CC34CC343D340A34D7342334CD
:10109E003C346F34123483343A341734B734D13489
:1010AE003834AC34C53427343734BD343734863411
:1010BE0035349534BF34D63433347734CC342B3482
:1010CE0032345F34703489343034FF34E634DB34F8
:1010DE002E340834E5343C341E3460344234A234A9
:1010EE000D3401340034003400340A34003400343A
:1010FE0000346434003400340034E83403340034F3
:10110E0000341034273400340034A03486340134D3
:10111E000034403442340F340034803496349834E2
:10112E0000340034E134F53405340034CA349A34D2
:10113E003B3425342E3432346634203469346E34E4
:10114E0063346834653473342034203420340034EE
:10115E0020342034543469346D34653420344F34A3
:10116E00753474342034203400344F3455345434B0
:10117E0020344F3446342034523441344E344734C4
:10118E004534003442344C3449344E3444342034E3
:10119E005A344F344E3445340034203425347534AB
:1011AE00203463346D3420342034203400344434FD
:1011BE0069347334743461346E34633465343A3460
:1011CE00003473087204710470040319EF28F028B8
:1011DE00F2288030F306080083120313A101F81FD2
:1011EE00F928FA280129F709F809F70A0319F80A64
:1011FE00A101A10AFA1F042905290E29F909FA09E4
:10120E00F90A0319FA0A0130FB007B08A106A201B4
:10121E00A301770878040319152916294D29A00171
:10122E00A00A242901300310F70DF80DFF3E031D0F
:10123E001A290130FB007B08A007F81F272928294F
:10124E00192901300310A20DA30DFF3E031D2929FC
:10125E0078087A02031D352977087902031C38298C
:10126E00392940297708F9027808031CFA03FA0293
:10127E00221401300310F80CF70CFF3E031D412918
:10128E000130A002031D4C294D29282921080319DC
:10129E00512952295729A209A309A20A0319A30AFF
:1012AE002308F8002208F70008008312031327080A
:1012BE008039B1002708AC002C07B700A61F68299B
:1012CE0069296A293714370803196E296F297E296F
:1012DE00370A031D732974297C290030A7000030BA
:1012EE00A6000030A5000030A400A6178629003005
:1012FE00A7000030A6000030A5000030A4002B0887
:10130E008039AC002C08B1062B08AC002C07B600B7
:10131E00AA1F92299329942936143608031998295D
:10132E009929A829360A031D9D299E29A629003030
:10133E00AB000030AA000030A9000030A800AA17A8
:10134E00B0290030AB000030AA000030A9000030F8
:10135E00A80036080319B429B529BA293708031D80
:10136E00B929BA29C3290030A7000030A6000030E1
:10137E00A5000030A400A02C2408F0002A080A16AC
:10138E008A1597210A128A15710883120313BD005C
:10139E007008BC003C08AC00AD01AE01AF012F08D7
:1013AE00B5002E08B4002D08B3002C08B2003D087D
:1013BE00AC00AD01AE01AF012F08BB002E08BA0084
:1013CE002D08B9002C08B8002508F00029080A16C7
:1013DE008A1597210A128A15710883120313BD000C
:1013EE007008BC003C08AC00AD01AE01AF012C088A
:1013FE00B2072D0803110318013E0319072AB3077C
:10140E002E0803110318013E03190E2AB4072F08E4
:10141E0003110318013E0319152AB5073D08AC0048
:10142E00AD01AE01AF012C08B8072D08031103184A
:10143E00013E0319232AB9072E0803110318013E92
:10144E0003192A2ABA072F0803110318013E03199C
:10145E00312ABB072608F00028080A168A1597219C
:10146E000A128A15710883120313BD007008BC009E
:10147E003C08AC00AD01AE01AF012C08B2072D083F
:10148E0003110318013E03194D2AB3072E08031149
:10149E000318013E0319542AB4072F080311031829
:1014AE00013E03195B2AB5073D08AC00AD01AE0144
:1014BE00AF012C08B8072D0803110318013E0319BC
:1014CE00692AB9072E0803110318013E0319702A61
:1014DE00BA072F0803110318013E0319772ABB0719
:1014EE000830AC000310B20DB30DB40DB50DAC0B3E
:1014FE00792A2508F00028080A168A1597210A125B
:10150E008A15710883120313BD007008BC003C08D5
:10151E00AC003D08AD00AE01AF012C08B2072D089E
:10152E0003110318013E03199D2AB3072E08031158
:10153E000318013E0319A42AB4072F080311031838
:10154E00013E0319AB2AB5072408F00029080A1634
:10155E008A1597210A128A15710883120313BD008A
:10156E007008BC003C08AC003D08AD00AE01AF01F8
:10157E002C08B2072D0803110318013E0319C82ABF
:10158E00B3072E0803110318013E0319CF2AB4071F
:10159E002F0803110318013E0319D62AB507083088
:1015AE00AC000310B20DB30DB40DB50DAC0BD82AB3
:1015BE002408F00028080A168A1597210A128A159F
:1015CE00710883120313BD007008BC003C08AC0008
:1015DE003D08AD00AE01AF012C08B2072D08031176
:1015EE000318013E0319FC2AB3072E080311031832
:1015FE00013E0319032BB4072F0803110318013EF4
:10160E0003190A2BB5072508F0002A080A168A15B1
:10161E0097210A128A15710883120313BD007008F0
:10162E00BC003C08AC003D08AD00AE01AF012C087B
:10163E00B8072D0803110318013E0319272BB9070C
:10164E002E0803110318013E03192E2BBA072F087B
:10165E0003110318013E0319352BBB072608F000B2
:10166E0029080A168A1597210A128A1571088312FB
:10167E000313BD007008BC003C08AC003D08AD0073
:10168E00AE01AF012C08B8072D0803110318013E57
:10169E000319522BB9072E0803110318013E031923
:1016AE00592BBA072F0803110318013E0319602B9B
:1016BE00BB072608F0002A080A168A1597210A1277
:1016CE008A15710883120313BD007008BC003C0814
:1016DE00AC003D08AD00AE01AF0108300310AC0DFB
:1016EE00AD0DAE0DAF0DFF3E031D752B2C08B807CB
:1016FE002D0803110318013E0319862BB9072E0876
:10170E0003110318013E03198D2BBA072F0803117D
:10171E000318013E0319942BBB073208AC003308A3
:10172E00AD003408AE003508AF0018300310AF0C12
:10173E00AE0CAD0CAC0CFF3E031D9D2B2C08B80758
:10174E002D0803110318013E0319AE2BB9072E08FD
:10175E0003110318013E0319B52BBA072F08031105
:10176E000318013E0319BC2BBB070830AC00031055
:10177E00B20DB30DB40DB50DAC0BBE2B370836073D
:10178E00AC00AD01AD0D2C08823EBC002D08031837
:10179E00013EFF3EBD00F02B0130AC000310B80D32
:1017AE00B90DBA0DBB0DAC0BD52BB51FDF2BE02B36
:1017BE00E12B38140130AC000310B20DB30DB40D93
:1017CE00B50DAC0BE32BFF30BC070318BD0AFF3081
:1017DE00BD07BA1FF32BF42BD32BB601B51FF82B75
:1017EE00F92B152CFF303205AC00FF303305AD0060
:1017FE00FF303405AE007F303505AF002F082E04C4
:10180E002D042C0403190C2C0D2C102CB601B60A29
:10181E00152C381C132C142C152C0D2C36080319D2
:10182E00192C1A2C4B2C0130B8070030031801303C
:10183E00B907003003180130BA0700300318013021
:10184E00BB073B1C2B2C2C2C4B2C3808AC0039081E
:10185E00AD003A08AE003B08AF000130B0002F0DCE
:10186E00AF0CAE0CAD0CAC0CB00B362C2F08BB0075
:10187E002E08BA002D08B9002C08B8000130BC079C
:10188E000318BD0A0030BD073D08803AFF008030C6
:10189E007F02031D542CFF303C02031C572C582C86
:1018AE00632C7F3083120313BB008030BA000030EC
:1018BE00B9000030B800942C831203133D08803A0F
:1018CE00FF0080307F02031D6E2C01303C02031896
:1018DE00712C722C7E2C003083120313BB0000304F
:1018EE00BA000030B9000030B800B101942C831258
:1018FE0003133C08B700FF30B805FF30B9057F3041
:10190E00BA050030BB05371C8D2C8E2C8F2CBA17C8
:10191E003708AC0003102C0CBB003108AC002C08AF
:10192E00BB043B08A7003A08A6003908A5003808F2
:10193E00A400080083120313D000D01FA72CA82CDC
:10194E00552ED009D00A5008803A123E031CB02CF6
:10195E00B12C992D0A30F7000030F8005008F20033
:10196E00F301F21BF3036430F0000030F1000A16AD
:10197E008A15E4230A128A157108FA007008F90014
:10198E000A128A15F3200A128A1577088312031396
:10199E00C20001300310C20DFF3E031DD12C0310F7
:1019AE00420D593E84000A128A150A200A128A151F
:1019BE00C3000A128A150A200A128A15C4000A12D6
:1019CE008A150A200A128A15C5000A128A150A20DB
:1019DE000A128A15C6004608A7004508A600440844
:1019EE00A5004308A4006430F7000030F80050084A
:1019FE00F900FA01F91BFA030A128A15F3200A12EA
:101A0E008A15770883120313C70001300310C70D20
:101A1E00FF3E031D0D2D0310470D7D3E84000A125F
:101A2E008A150A200A128A15C8000A128A150A2077
:101A3E000A128A15C9000A128A150A200A128A1574
:101A4E00CA000A128A150A200A128A15CB004B0800
:101A5E00AB004A08AA004908A9004808A8000A12C3
:101A6E008A155C210A128A15831203132708CF00E8
:101A7E002608CE002508CD002408CC000A30F00040
:101A8E000030F1005008F200F301F21BF3030A16C6
:101A9E008A15E4230A128A15700883120313C200F2
:101AAE0001300310C20DFF3E031D582D0310420DD1
:101ABE00353E84000A128A150A200A128A15C300BE
:101ACE000A128A150A200A128A15C4000A128A15E9
:101ADE000A200A128A15C5000A128A150A200A124D
:101AEE008A15C6004608A7004508A6004408A500AA
:101AFE004308A4004F08AB004E08AA004D08A900E9
:101B0E004C08A8000A128A155C210A128A15831243
:101B1E0003132708C1002608C0002508BF002408AB
:101B2E00BE00FF2F5008803A753E031C9F2DA02D3E
:101B3E00282E0A30F0000030F1005008F200F301B8
:101B4E00F21BF3030A168A15E4230A128A1570088B
:101B5E0083120313C20001300310C20DFF3E031D9A
:101B6E00B32D0310420D353E84000A128A150A2049
:101B7E000A128A15C3000A128A150A200A128A1539
:101B8E00C4000A128A150A200A128A15C5000A1202
:101B9E008A150A200A128A15C6004608A7004508AB
:101BAE00A6004408A5004308A4000A30F700003040
:101BBE00F8005008F900FA01F91BFA030A128A1507
:101BCE00F3200A128A15770883120313C700013017
:101BDE000310C70DFF3E031DEF2D0310470D593E99
:101BEE0084000A128A150A200A128A15C8000A12DF
:101BFE008A150A200A128A15C9000A128A150A20A5
:101C0E000A128A15CA000A128A150A200A128A15A1
:101C1E00CB004B08AB004A08AA004908A9004808A7
:101C2E00A8000A128A155C210A128A158312031360
:101C3E002708C1002608C0002508BF002408BE00E2
:101C4E00FF2F5008C20001300310C20DFF3E031DCE
:101C5E002B2E0310420D353E84000A128A150A20DF
:101C6E000A128A15C3000A128A150A200A128A1548
:101C7E00C4000A128A150A200A128A15C5000A1211
:101C8E008A150A200A128A15C6004608C1004508A0
:101C9E00C0004408BF004308BE00FF2F5008803A22
:101CAE00123E031C5B2E5C2E442F0A30F7000030D0
:101CBE00F8005008F200F301F21BF3036430F00059
:101CCE000030F1000A168A15E4230A128A157108EB
:101CDE00FA007008F9000A128A15F3200A128A1502
:101CEE00770883120313C20001300310C20DFF3EAA
:101CFE00031D7C2E0310420D253E84000A128A1508
:101D0E000A200A128A15C3000A128A150A200A121C
:101D1E008A15C4000A128A150A200A128A15C500ED
:101D2E000A128A150A200A128A15C6004608A7004A
:101D3E004508A6004408A5004308A4006430F70037
:101D4E000030F8005008F900FA01F91BFA030A12E4
:101D5E008A15F3200A128A15770883120313C70017
:101D6E0001300310C70DFF3E031DB82E0310470DA3
:101D7E00493E84000A128A150A200A128A15C800E2
:101D8E000A128A150A200A128A15C9000A128A1521
:101D9E000A200A128A15CA000A128A150A200A1285
:101DAE008A15CB004B08AB004A08AA004908A900C7
:101DBE004808A8000A128A155C210A128A15831295
:101DCE0003132708CF002608CE002508CD002408CF
:101DDE00CC000A30F0000030F1005008F200F301A0
:101DEE00F21BF3030A168A15E4230A128A157008E9
:101DFE0083120313C20001300310C20DFF3E031DF8
:101E0E00032F0310420D013E84000A128A150A2088
:101E1E000A128A15C3000A128A150A200A128A1596
:101E2E00C4000A128A150A200A128A15C5000A125F
:101E3E008A150A200A128A15C6004608A700450808
:101E4E00A6004408A5004308A4004F08AB004E08A6
:101E5E00AA004D08A9004C08A8000A128A155C2198
:101E6E000A128A15831203132708C1002608C00020
:101E7E002508BF002408BE00FF2F5008803A753E8B
:101E8E00031C4A2F4B2FD32F0A30F0000030F100E5
:101E9E005008F200F301F21BF3030A168A15E4232D
:101EAE000A128A15700883120313C2000130031040
:101EBE00C20DFF3E031D5E2F0310420D013E840036
:101ECE000A128A150A200A128A15C3000A128A15E6
:101EDE000A200A128A15C4000A128A150A200A124A
:101EEE008A15C5000A128A150A200A128A15C6001A
:101EFE004608A7004508A6004408A5004308A4000C
:101F0E000A30F7000030F8005008F900FA01F91B0A
:101F1E00FA030A128A15F3200A128A157708831219
:101F2E000313C70001300310C70DFF3E031D9A2F88
:101F3E000310470D253E84000A128A150A200A1244
:101F4E008A15C8000A128A150A200A128A15C900B3
:101F5E000A128A150A200A128A15CA000A128A154E
:101F6E000A200A128A15CB004B08AB004A08AA00B9
:101F7E004908A9004808A8000A128A155C210A120D
:101F8E008A15831203132708C1002608C0002508EE
:101F9E00BF002408BE00FF2F5008C20001300310FE
:101FAE00C20DFF3E031DD62F0310420D013E8400CD
:101FBE000A128A150A200A128A15C3000A128A15F5
:101FCE000A200A128A15C4000A128A150A200A1259
:101FDE008A15C5000A128A150A200A128A15C60029
:101FEE004608C1004508C0004408BF004308BE00B3
:021FFE000800D9
:10200200F2007208840083138001840A8001831223
:1020120003138E018F011428720884000E088000B9
:10202200840A0F088000061C17281828282872081E
:1020320084000008F000840A0008F1005A3071029E
:10204200A03003197002031C272828280D2810101D
:10205200720884000008F000840A0008F1005A3077
:102062007102A03003197002031838283928492850
:10207200720884000008F000840A0008F1000030B1
:1020820071027930031970020318482849284B2835
:1020920003144C28031008007030831603138F00BA
:1020A2008316031789018312031386018316031310
:1020B2008610861210308312031390008E018F0156
:1020C2000B3083160313C5002630C4005D30C300F5
:1020D200C30B6928C40B6928C50B69280A168A151F
:1020E200A3240A168A1183120313861078287928EA
:1020F200831203138614053083160313C300C30B24
:10210200802883288312031386100A168A157121E8
:102112000A168A11031C8E288F28A629CA300A168D
:102122008A1101200A168A11031C98289928DA2894
:1021320001300A168A15BE210A168A115A308316F0
:1021420003134B02A03003194A02031CA928AA2830
:10215200BC28F601F60A03300A168A15EB210A1684
:102162008A11AD30F3008030F4000A168A159F22DE
:102172000A168A11D62800304B02793003194A0216
:102182000318C428C528D628F601F60A04300A1610
:102192008A15EB210A168A11BA30F3008030F40056
:1021A2000A168A159F220A168A11831203138616AB
:1021B200B729F601F60A01300A168A15EB210A162A
:1021C2008A11CF30F3008030F4000A168A159F225C
:1021D2000A168A11831603134A08F0004B08F1000D
:1021E200F201F30100300A168A1590260A168A11A6
:1021F200730883120313A7007208A6007108A500D2
:102202007008A4004230A3006830A2000030A10090
:102212000030A0000A168A11CA210A168A118312F6
:1022220003132308D4002208D3002108D200200877
:10223200D1000A128A1107200A168A118312031387
:10224200520883160313CB0083120313510883161B
:102252000313CA00403083120313A3002230A200EA
:102262008F30A1005C30A000831603134A08F000EF
:102272004B08F100F201F30100300A168A1590268C
:102282000A168A11730883120313A7007208A600A4
:102292007108A5007008A4000A168A11CA210A163C
:1022A2008A1183120313230883160313C9008312AE
:1022B2000313220883160313C80083120313210891
:1022C20083160313C7008312031320088316031314
:1022D200C600C530A0004B08A2004A08A100CC30BD
:1022E2000A128A117F200A168A11CC30F3000030BC
:1022F200F4000A168A159F220A168A110230F60085
:1023020003300A168A15EB210A168A1191308316B8
:102312000313A0004908A4004808A3004708A2002C
:102322004608A100CC300A128A117F200A168A11AF
:10233200CC30F3000030F4000A168A159F220A16E8
:102342008A11831203138612B7290230F600033072
:102352000A168A15EB210A168A11A030F300803082
:10236200F4000A168A159F220A168A110330831670
:102372000313C5000830C4007630C300C30BBF2965
:10238200C40BBF29C50BBF29000074280A128A1189
:1023920000288312031327088039B1002708A800F8
:1023A2002807B800A61FD629D729D82938143808F3
:1023B2000319DC29DD29ED29380A031DE129E22967
:1023C200EA290030A7000030A6000030A500003046
:1023D200A400A617A701F5290030A7000030A60027
:1023E2000030A5000030A40023088039A800280886
:1023F200B1062308A8002807B900A21F012A022A51
:10240200032A391439080319072A082A182A390A0B
:10241200031D0C2A0D2A152A0030A3000030A20049
:102422000030A1000030A000A217A301202A003032
:10243200A3000030A2000030A1000030A000230859
:10244200220421042004031D272A282A412A0030BD
:10245200A7000030A6000030A5000030A4008030A4
:10246200A6047F30A7043108A8002808A70427087B
:10247200A3002608A2002508A1002408A0009C2B86
:102482003808031D452A462A4F2A0030A30000308F
:10249200A2000030A1000030A0009C2B3808A80048
:1024A200A9012908AB0039082802AA00031CAB03C2
:1024B2002A087F3EB2002B080318013E003EB300FB
:1024C2002708B0002608AF002508AE002408AD009A
:1024D2000030A7000030A6000030A5000030A400A4
:1024E2000030B7000030B6000030B5000030B40054
:1024F200B901C52A390803197F2A802AA02A013086
:10250200A8000310AD0DAE0DAF0DB00DA80B822AC1
:102512000130A8000310A40DA50DA60DA70DA80B50
:102522008B2AB71F952A962A972A24140130A800CD
:102532000310B40DB50DB60DB70DA80B992A2308DB
:102542003002031DAE2A22082F02031DAE2A2108E3
:102552002E02031DAE2A20082D02031CB12AB22A24
:10256200C12A37172008AD022108031C210FAE0231
:102572002208031C220FAF022308031C230FB00200
:102582000130A8002808B9071A303902031CCA2AE8
:10259200CB2A7B2A30082F042E042D040319D22AB9
:1025A200D32AF22A3414F22A0130A8000310A40D0F
:1025B200A50DA60DA70DA80BD72AB71FE12AE22A5F
:1025C200E32A24140130A8000310B40DB50DB60D92
:1025D200B70DA80BE52AFF30B2070318B30AFF3084
:1025E200B307A61FF52AF62AD52AB901B71FFA2A78
:1025F200FB2A172BFF303405A800FF303505A90050
:10260200FF303605AA007F303705AB002B082A04BD
:102612002904280403190E2B0F2B122BB901B90A16
:10262200172B241C152B162B172B0F2B39080319CC
:102632001B2B1C2B4D2B0130A4070030031801303B
:10264200A507003003180130A60700300318013037
:10265200A707271C2D2B2E2B4D2B2408A80025085D
:10266200A9002608AA002708AB000130AC002B0DF8
:10267200AB0CAA0CA90CA80CAC0B382B2B08A7008E
:102682002A08A6002908A5002808A4000130B207DC
:102692000318B30A0030B3073308803AFF008030D2
:1026A2007F02031D562BFF303202031C592B5A2B7B
:1026B200682BFF3083120313B2000030B3000030E6
:1026C200A7000030A6000030A5000030A40083124D
:1026D20003133308803AFF0080307F02031D732BFF
:1026E200013032020318762B772B842B83120313CB
:1026F200B201B3010030A7000030A6000030A500EF
:102702000030A400B101831203133208B800381C50
:102712008B2B8C2B8E2BA617922B7F30A800280890
:10272200A6053808A8000310280CA7003108A80045
:102732002808A704382A080083120313D1006E3038
:102742005102031CA52BA62BB32C3F30A70000304F
:10275200A6000030A5000030A4006430F60000306E
:10276200F7005108C200C3014208F8004308F9000B
:102772000A168A155B220A168A1176088312031337
:10278200C40001300310C40DFF3E031DC32B031010
:10279200440D7D3E84000A128A150A200A168A1107
:1027A200C5000A128A150A200A168A11C6000A12E0
:1027B2008A150A200A168A11C7000A128A150A20E7
:1027C2000A168A11C8004808AB004708AA00460842
:1027D200A9004508A8000A128A155C210A168A1166
:1027E200831203132708D0002608CF002508CE0045
:1027F2002408CD000A30F6000030F7005108C2006C
:10280200C3014208F2004308F3006430F0000030D4
:10281200F1000A168A1521220A168A117108F90096
:102822007008F8000A168A155B220A168A117608C1
:1028320083120313C40001300310C40DFF3E031DB5
:102842001D2C0310440D593E84000A128A150A20D9
:102852000A168A11C5000A128A150A200A168A1156
:10286200C6000A128A150A200A168A11C7000A121D
:102872008A150A200A168A11C8004808A7004708C4
:10288200A6004608A5004508A4005008AB004F0862
:10289200AA004E08A9004D08A8000A128A155C2158
:1028A2000A168A11831203132708CC002608CB00CC
:1028B2002508CA002408C9000A30F0000030F100DF
:1028C2005108C200C3014208F2004308F3000A168D
:1028D2008A1521220A168A11700883120313C40072
:1028E20001300310C40DFF3E031D722C0310440D72
:1028F200353E84000A128A150A200A168A11C5007A
:102902000A128A150A200A168A11C6000A128A15A4
:102912000A200A168A11C7000A128A150A200A1604
:102922008A11C8004808A7004708A6004608A50063
:102932004508A4004C08AB004B08AA004A08A900AD
:102942004908A8000A128A155C210A168A11831204
:1029520003132708C1002608C0002508BF00240869
:10296200BE00A72D0B305102031CB82CB92C642DCC
:102972003F30A7000030A6000030A5000030A400C0
:102982000A30F6000030F7005108C200C3014208C5
:10299200F8004308F9000A168A155B220A168A1102
:1029A200760883120313C40001300310C40DFF3EE6
:1029B200031DD62C0310440D593E84000A128A15B9
:1029C2000A200A168A11C5000A128A150A200A1656
:1029D2008A11C6000A128A150A200A168A11C7002D
:1029E2000A128A150A200A168A11C8004808AB0082
:1029F2004708AA004608A9004508A8000A128A1535
:102A02005C210A168A11831203132708D0002608B4
:102A1200CF002508CE002408CD000A30F000003097
:102A2200F1005108C200C3014208F2004308F3005A
:102A32000A168A1521220A168A11700883120313B4
:102A4200C40001300310C40DFF3E031D232D0310EB
:102A5200440D353E84000A128A150A200A168A118C
:102A6200C5000A128A150A200A168A11C6000A121D
:102A72008A150A200A168A11C7000A128A150A2024
:102A82000A168A11C8004808A7004708A600460887
:102A9200A5004508A4005008AB004F08AA004E0844
:102AA200A9004D08A8000A128A155C210A168A118B
:102AB200831203132708C1002608C0002508BF009F
:102AC2002408BE00A72D3F30A7000030A60000302A
:102AD200A5000030A4005108C20001300310C20D4D
:102AE200FF3E031D6F2D0310420D353E84000A1276
:102AF2008A150A200A168A11C3000A128A150A20A8
:102B02000A168A11C4000A128A150A200A168A11A4
:102B1200C5000A128A150A200A168A11C60046083A
:102B2200AB004508AA004408A9004308A8000A12FD
:102B32008A155C210A168A11831203132708C10021
:102B42002608C0002508BF002408BE000800831222
:102B5200031355088039E2005508DA005A07E400E9
:102B6200D41FB42DB52DB62D641464080319BA2DE3
:102B7200BB2DCB2D640A031DBF2DC02DC82D0030E7
:102B8200D5000030D4000030D3000030D200D4177A
:102B9200D501D32D0030D5000030D4000030D30051
:102BA2000030D20059088039E30063086206031935
:102BB200DB2DDC2DDD2D62175908DA005A07E30000
:102BC200D81FE42DE52DE62D631463080319EA2DC1
:102BD200EB2DFB2D630A031DEF2DF02DF82D003098
:102BE200D9000030D8000030D7000030D600D81706
:102BF200D901032E0030D9000030D8000030D700B0
:102C02000030D600640863020318082E092E2F2E06
:102C1200621F0C2E0D2E112E8030DA005A08E206A9
:102C22006408E5006308E4006508E3005208E50073
:102C32005608D2006508D6005308E5005708D300AD
:102C42006508D7005408E5005808D4006508D80084
:102C52005508E5005908D5006508D900E501630863
:102C6200DA00DB015B08DD0064085A02DC00031CA9
:102C7200DD035D08803AFF0080307F02031D432E92
:102C82001A305C02031C462E472E7E2E831203133B
:102C92005508540453045204031D502E522E013081
:102CA200532E0030E5000030D5000030D400003053
:102CB200D3000030D2006308E400862E651C622E29
:102CC200632E6A2E6508DA0003105A0C0138E500FB
:102CD2006C2E0310E50C521C6F2E702E712EE51710
:102CE2000130DA00550DD50CD40CD30CD20CDA0B12
:102CF200732E0130DA005A08E407831203136308C3
:102D02006402031C852E862E5F2E621B892E8A2E5C
:102D1200D32E6408031D8E2E8F2E982E0030D500E0
:102D22000030D4000030D3000030D200FF2F56080C
:102D3200D207570803110318013E0319A12ED30726
:102D4200580803110318013E0319A82ED407590885
:102D520003110318013E0319AF2ED507551CB22EDD
:102D6200B32E872F651CB62EB72EBE2E6508DA004D
:102D720003105A0C0138E500C02E0310E50C521C5A
:102D8200C32EC42EC52EE5170130DA00550DD50C21
:102D9200D40CD30CD20CDA0BC72E0130DA005A084D
:102DA200E407872F5508803AFF005908803A7F02CE
:102DB200031DE52E58085402031DE52E5708530241
:102DC200031DE52E560852020318E82EE92E412F64
:102DD200FF30DA00FF30DB00FF30DC00FF30DD00C7
:102DE2005608DE005708DF005808E0005908E100E5
:102DF2005208DE025308031C530F002F012FDF027B
:102E02005408031C540F062F072FE0025508031C19
:102E1200550F0C2F0D2FE1025E08DA075F08031829
:102E22005F0F142F152FDB0760080318600F1A2F8E
:102E32001B2FDC0761080318610ADD075D08D50056
:102E42005C08D4005B08D3005A08D2008030DA0054
:102E52005A08E206E509E50A6508031D312F322FFB
:102E62004F2F0130D207003003180130D307003052
:102E720003180130D407003003180130D5074F2F53
:102E82005608D2025708031C570FD3025808031CD6
:102E9200580FD4025908031C590FD502550854047F
:102EA20053045204031D562F572F832F6508031D09
:102EB2005B2F5C2F832F0030D5000030D400003010
:102EC200D3000030D200FF2F0130DA000310D20D00
:102ED200D30DD40DD50DDA0B672FE51F712F722F8D
:102EE200732F5214651C762F772F7A2F0314E50D5A
:102EF2007C2F0310E50D64080319802F812F832F87
:102F02000130E402D41F862F872F652FE301E51FCE
:102F12008B2F8C2F9A2F65087F390319912F922FAF
:102F2200952FE301E30A9A2F521C982F992F9A2F7B
:102F3200922F630803199E2F9F2FD32F0130D207A0
:102F4200003003180130D307003003180130D407D2
:102F5200003003180130D507551CB02FB12FD32FE5
:102F62005208DA005308DB005408DC005508DD0083
:102F72000130DE005D0DDD0CDC0CDB0CDA0CDE0B4F
:102F8200BB2F5D08D5005C08D4005B08D3005A084B
:102F9200D200640A0319CE2FCF2FD32F0130DA00CB
:102FA2005A08E407640A0319D72FD82FDD2F6408C3
:102FB200031DDC2FDD2FEB2F0030D5000030D400B5
:102FC2000030D3000030D2006408031DE92FEA2F3D
:102FD200EB2FE201641CEE2FEF2FF12FD417F52F08
:102FE2007F30DA005A08D4056408DA0003105A0C5C
:0E2FF200D500E21FFD2FFE2FFF2FD517080080
:10321C0064008001840A04060319003404060F2993
:10322C00F100F0013A30710203181D291E292629DC
:10323C0030307102031C232924292629F001F00ABD
:10324C00700C0800803083120313E9066D08D5005A
:10325C006C08D4006B08D3006A08D2006908D90046
:10326C006808D8006708D7006608D6000A168A11C5
:10327C00A8250A168A15831203135508E900540869
:10328C00E8005308E7005208E6000800F401F501D5
:10329C00701C5129522958297208F4070318F50A91
:1032AC007308F50701300310F20DF30DFF3E031DFB
:1032BC00592901300310F10CF00CFF3E031D60295D
:1032CC0070087104031D6B296C294E297508F100D7
:1032DC007408F0000800F001F101831203138E0151
:1032EC008F0110147D290F08F1000E08F00006184C
:1032FC00802981298A2903307102E8300319700270
:10330C00031C89298A29792903307102E8300319B1
:10331C007002031C922993299529031096290314F2
:10332C000800F800F401F5017008F200F3017208CE
:10333C00F6007308F700781CA429A529AB29760898
:10334C00F4070318F50A7708F50701300310F60D9A
:10335C00F70DFF3E031DAC290310F80C7808031D74
:10336C00B829B929A1297508F1007408F0000800E2
:10337C00F500831203136E107508F300043003106C
:10338C00F30CFF3E031DC52973080A168A158C23FE
:10339C000A168A1575080A168A158C230A168A15B8
:1033AC0075030319DA29DB29E12902307506031D9F
:1033BC00E029E129EA290630F4003030F300F30B60
:1033CC00E529F40BE52900000800F9000D2A79081D
:1033DC00BF3E0A168A15BE210A168A15202A7908BC
:1033EC00933E0A168A15BE210A168A15202A7908D8
:1033FC00D33E0A168A15BE210A168A15202A790888
:10340C007F3E0A168A15BE210A168A15202A7608CE
:10341C00F700F8017808003A0319152A052A7708ED
:10342C00023A0319ED29013A0319F529073A031950
:10343C00FD29052A0800700871040319262A272A79
:10344C00562AF501F50A352A01300310F00DF10D5D
:10345C00FF3E031D2B2A0130F4007408F507F11F01
:10346C00382A392A2A2A71087302031D3F2A700848
:10347C007202031C422A432A492A7008F20271087C
:10348C00031CF303F30201300310F10CF00CFF3EAC
:10349C00031D4A2A0130F502031D552A562A392AE2
:1034AC007308F1007208F0000800FB01FC017608BB
:1034BC0077040319622A632A9A2AFD01FD0A712AEC
:1034CC0001300310F60DF70DFF3E031D672A013086
:1034DC00FA007A08FD07F71F742A752A662A01304C
:1034EC000310FB0DFC0DFF3E031D762A77087902B5
:1034FC00031D822A76087802031C852A862A8D2AC7
:10350C007608F8027708031CF903F9027B140130E2
:10351C000310F70CF60CFF3E031D8E2A0130FD0242
:10352C00031D992A9A2A752A7C08F7007B08F60055
:10353C000800F601831203136E14D42A760873075D
:10354C00840074080318740AFF000A128A150020FC
:10355C000A168A15F50004300310F50CFF3E031D06
:10356C00B22A75080A168A158C230A168A1576084B
:10357C007307840074080318740A83120313FF0082
:10358C000A128A1500200A168A150A168A158C2327
:10359C000A168A150130F5007508F60776087307C8
:1035AC00840074080318740A83120313FF000A12B0
:1035BC008A1500200A168A15003A031DE62AE72A06
:1035CC00A42A080000307005F80000307105F900DD
:1035DC0080307205FA007F307305FB007B087A049B
:1035EC0079047804031DFB2AFC2A042B0030F30019
:1035FC000030F2000030F1000030F00000307405B3
:10360C00F80000307505F90080307605FA007F303F
:10361C007705FB007B087A0479047804031D172BCB
:10362C00182B202B0030F7000030F6000030F5008E
:10363C000030F40077087306031D2E2B76087206F3
:10364C00031D2E2B75087106031D2E2B7408700696
:10365C000319312B322B342B0310352B0314080098
:10366C0083120313230822042104200403193F2B83
:10367C00402B832BA901A90A502B0130A800031061
:10368C00A00DA10DA20DA30DA80B452B0130A80078
:10369C002808A907A31F532B542B432B23082702BD
:1036AC00031D622B22082602031D622B2108250212
:1036BC00031D622B20082402031C652B662B742B24
:1036CC002008A4022108031C210FA5022208031CB8
:1036DC00220FA6022308031C230FA702013003109C
:1036EC00A30CA20CA10CA00CFF3E031D752B0130EA
:1036FC00A902031D822B832B542B2708A300260819
:10370C00A2002508A1002408A0000800F2008312E2
:10371C0003136E18922B962B831203130814992BF8
:10372C0083120313081072080139F000F00DF00D2C
:10373C00F00D08087006F739700688007208F00062
:10374C000310700C0139F100F10E08087106EF3905
:10375C00710688007208F00002300310F00CFF3E76
:10376C00031DB32B70080139F100F10EF10D08089F
:10377C007106DF39710688007208F00003300310FF
:10378C00F00CFF3E031DC52B70080139F100F10E42
:10379C00F10DF10D08087106BF397106880008118A
:1037AC00D72B831203130815DB2B83120313081179
:1037BC004230F000F00BE02B00000800F601F31F84
:1037CC00E82BE92BF02BF209F309F20A0319F30A9F
:1037DC00F601F60AF11FF32BF42BF92BF009F10982
:1037EC00F00A0319F10A700871040319FE2BFF2B60
:1037FC002E2CF501F50A0D2C01300310F00DF10DF6
:10380C00FF3E031D032C0130F4007408F507F11F73
:10381C00102C112C022C71087302031D172C70082C
:10382C007202031C1A2C1B2C212C7008F20271083A
:10383C00031CF303F30201300310F10CF00CFF3EF8
:10384C00031D222C0130F502031D2D2C2E2C112CC6
:10385C0076080319322C332C382CF209F309F20AAE
:10386C000319F30A7308F1007208F0000800003025
:10387C00FC000030FB000030FA000030F900730847
:10388C0072047104700403194C2C4D2C9A2CFD01FC
:10389C00FD0A5D2C0130F8000310F00DF10DF20D56
:1038AC00F30DF80B522C0130F8007808FD07F31FCC
:1038BC00602C612C502C0130F8000310F90DFA0D1E
:1038CC00FB0DFC0DF80B632C73087702031D782C91
:1038DC0072087602031D782C71087502031D782C72
:1038EC0070087402031C7B2C7C2C8B2C7008F4024B
:1038FC007108031C710FF5027208031C720FF6029B
:10390C007308031C730FF702791401300310F30CC6
:10391C00F20CF10CF00CFF3E031D8C2C0130FD025F
:10392C00031D992C9A2C612C7C08F3007B08F20067
:10393C007A08F1007908F0000800831203136E1066
:10394C000810081188110812881208138316031323
:10395C000810881008118811081288120813683092
:10396C00F700E430F600F60BB92CF70BB92C00007D
:10397C0003300A168A15BE210A168A150D30F70077
:10398C00FB30F600F60BC82CF70BC82CCD2C0330F3
:10399C000A168A15BE210A168A150D30F700FB305F
:1039AC00F600F60BD72CF70BD72CDC2C03300A16B1
:1039BC008A15BE210A168A150D30F700FB30F60069
:1039CC00F60BE62CF70BE62CEB2C02300A168A15BC
:1039DC00BE210A168A150D30F700FB30F600F60BE7
:1039EC00F52CF70BF52CFA2C28300A168A15BE216B
:1039FC000A168A158230F700DD30F600F60B042D1E
:103A0C00F70B042D092D0C300A168A15BE210A1647
:103A1C008A158230F700DD30F600F60B132DF70B0C
:103A2C00132D182D01300A168A15BE210A168A1577
:103A3C008230F700DD30F600F60B222DF70B222D2D
:103A4C00272D06300A168A15BE210A168A158230D1
:103A5C00F700DD30F600F60B312DF70B312D362D3E
:103A6C00080000307005F80000307105F900803056
:103A7C007205FA007F307305FB007B087A04790429
:103A8C007804031D4A2D4B2D532D0030F3000030CC
:103A9C00F2000030F1000030F00000307405F80046
:103AAC0000307505F90080307605FA007F30770517
:103ABC00FB007B087A0479047804031D662D672DBE
:103ACC006F2D0030F7000030F6000030F5000030AC
:103ADC00F400F31F722D732D972D0030F800003079
:103AEC00F9000030FA008030FB007008F802710811
:103AFC00031C710F822D832DF9027208031C720FA7
:103B0C00882D892DFA027308031C730F8E2D8F2DAF
:103B1C00FB027B08F3007A08F2007908F1007808C0
:103B2C00F000F71F9A2D9B2DBF2D0030F8000030B0
:103B3C00F9000030FA008030FB007408F8027508B8
:103B4C00031C750FAA2DAB2DF9027608031C760FFA
:103B5C00B02DB12DFA027708031C770FB62DB72DB7
:103B6C00FB027B08F7007A08F6007908F500780864
:103B7C00F4008030F3068030F70677087302031DDB
:103B8C00D12D76087202031DD12D75087102031D0B
:103B9C00D12D740870020318D42DD52DD72D0310F8
:103BAC00D82D031408007008F8007108F900720889
:103BBC00FA000310790D7A0D83120313A500250862
:103BCC00031DE92DEA2DF32D0030F3000030F20037
:103BDC000030F1000030F0008F2E7408F8007508EA
:103BEC00F9007608FA000310790D7A0DA400240868
:103BFC00031D012E022E032EEA2DF117FF30F005C6
:103C0C00FF30F1050030F205F517FF30F405FF30F9
:103C1C00F5050030F6050030A3000030A20000309E
:103C2C00A1000030A0007F30A50298302407F800D6
:103C3C007808A5021830A4000130F8000310A00D7C
:103C4C00A10DA20DA30DF80B242E76087202031DF4
:103C5C00352E75087102031D352E74087002031C75
:103C6C00382E392E442E7408F0027508031C750F7B
:103C7C00F1027608031C760AF202201401300310BC
:103C8C00F00DF10DF20DFF3E031D452E0130A40287
:103C9C00031D512E522E222EA51F552E562E702E40
:103CAC002508803A973E03185C2E5D2E5E2EEA2D79
:103CBC0001300310A30CA20CA10CA00CFF3E031DA1
:103CCC005F2E0130F8007808A507031D6E2E6F2EAD
:103CDC005E2E872E18302502031C752E762E822E12
:103CEC00EA2D0130F8000310A00DA10DA20DA30DBB
:103CFC00F80B792E0130A5022508031D862E872E80
:103D0C00772E2308F3002208F2002108F100200886
:103D1C00F0000800F80078080319952E962EAA2EAC
:103D2C00F31F992E9A2EAA2E7009FA007109FB0026
:103D3C007209FC007309FD00FA0A0319FB0A031946
:103D4C00FC0A0319FD0AB22E7308FD007208FC0070
:103D5C007108FB007008FA00730872047104700497
:103D6C00031DB92EBA2EC32E0030F3000030F20022
:103D7C000030F1000030F000472F9630F900D32EC0
:103D8C000130F4007408F90701300310FD0CFC0C31
:103D9C00FB0CFA0CFF3E031DCB2EFE307D05031DE4
:103DAC00D82ED92EC62EF52E0130F4007408F90742
:103DBC000130FA07003003180130FB0700300318FC
:103DCC000130FC07003003180130FD0701300310EF
:103DDC00FD0CFC0CFB0CFA0CFF3E031DED2EFF3012
:103DEC007D05031DFA2EFB2EDA2E072F0130F9026A
:103DFC000130F4000310FA0DFB0DFC0DFD0DF40B5E
:103E0C00002FFC1B0A2F0B2F112F023079020318E5
:103E1C00102F112FFC2E7918142F152F1D2FFF305A
:103E2C00FA05FF30FB057F30FC05FF30FD05031064
:103E3C00F90C7908F400F501F601F70118300310BC
:103E4C00F40DF50DF60DF70DFF3E031D252F74082F
:103E5C00FA047508FB047608FC047708FD0478085E
:103E6C000319392F3A2F3F2FF31F3D2F3E2F3F2F92
:103E7C00FD177D08F3007C08F2007B08F1007A083E
:103E8C00F00008000310720D730D83120313A500CC
:103E9C002508031D522F532F5C2F0030F3000030E8
:103EAC00F2000030F1000030F000FF2F0310760D0F
:103EBC00770DA4002408031D642F652F662F532F44
:103ECC00F217FF30F005FF30F105FF30F20500303E
:103EDC00F305F617FF30F405FF30F505FF30F60556
:103EEC000030F7050030A3000030A2000030A10024
:103EFC000030A0007F30A502A0302407F80078081D
:103F0C00A5022030A4000130F8000310A00DA10D73
:103F1C00A20DA30DF80B8B2F77087302031DA02F96
:103F2C0076087202031DA02F75087102031DA02FC5
:103F3C0074087002031CA32FA42FB32F7408F00273
:103F4C007508031C750FF1027608031C760FF2023C
:103F5C007708031C770FF30220140130F8000310CC
:103F6C00F00DF10DF20DF30DF80BB52F0130A4028D
:103F7C00031DC12FC22F892FA51FC52FC62FE02FC0
:103F8C002508803A9F3E0318CC2FCD2FCE2F532FD0
:103F9C0001300310A30CA20CA10CA00CFF3E031DBE
:103FAC00CF2F0130F8007808A507031DDE2FDF2F77
:103FBC00CE2FF72F20302502031CE52FE62FF22FF2
:103FCC00532F0130F8000310A00DA10DA20DA30D6D
:103FDC00F80BE92F0130A5022508031DF62FF72F4A
:103FEC00E72F2308F3002208F2002108F100200833
:043FFC00F0000800C9
:04400E00D42CFF3F70
:00000001FF
